{
  "contractName": "IdentityVerification",
  "abi": [
    {
      "inputs": [],
      "stateMutability": "nonpayable",
      "type": "constructor"
    },
    {
      "anonymous": false,
      "inputs": [
        {
          "indexed": false,
          "internalType": "uint256",
          "name": "chainId",
          "type": "uint256"
        },
        {
          "indexed": false,
          "internalType": "bool",
          "name": "supported",
          "type": "bool"
        }
      ],
      "name": "ChainSupported",
      "type": "event"
    },
    {
      "anonymous": false,
      "inputs": [
        {
          "indexed": true,
          "internalType": "bytes32",
          "name": "identityHash",
          "type": "bytes32"
        },
        {
          "indexed": false,
          "internalType": "uint256",
          "name": "fromChainId",
          "type": "uint256"
        },
        {
          "indexed": false,
          "internalType": "uint256",
          "name": "toChainId",
          "type": "uint256"
        }
      ],
      "name": "CrossChainVerification",
      "type": "event"
    },
    {
      "anonymous": false,
      "inputs": [
        {
          "indexed": true,
          "internalType": "bytes32",
          "name": "identityHash",
          "type": "bytes32"
        },
        {
          "indexed": true,
          "internalType": "address",
          "name": "registeredBy",
          "type": "address"
        },
        {
          "indexed": false,
          "internalType": "uint256",
          "name": "chainId",
          "type": "uint256"
        }
      ],
      "name": "IdentityRegistered",
      "type": "event"
    },
    {
      "anonymous": false,
      "inputs": [
        {
          "indexed": true,
          "internalType": "bytes32",
          "name": "identityHash",
          "type": "bytes32"
        },
        {
          "indexed": true,
          "internalType": "address",
          "name": "revokedBy",
          "type": "address"
        },
        {
          "indexed": false,
          "internalType": "string",
          "name": "reason",
          "type": "string"
        },
        {
          "indexed": false,
          "internalType": "uint256",
          "name": "timestamp",
          "type": "uint256"
        }
      ],
      "name": "IdentityRevoked",
      "type": "event"
    },
    {
      "anonymous": false,
      "inputs": [
        {
          "indexed": true,
          "internalType": "bytes32",
          "name": "identityHash",
          "type": "bytes32"
        },
        {
          "indexed": true,
          "internalType": "address",
          "name": "verifiedBy",
          "type": "address"
        },
        {
          "indexed": false,
          "internalType": "uint256",
          "name": "chainId",
          "type": "uint256"
        }
      ],
      "name": "IdentityVerified",
      "type": "event"
    },
    {
      "anonymous": false,
      "inputs": [
        {
          "indexed": true,
          "internalType": "address",
          "name": "previousOwner",
          "type": "address"
        },
        {
          "indexed": true,
          "internalType": "address",
          "name": "newOwner",
          "type": "address"
        }
      ],
      "name": "OwnershipTransferred",
      "type": "event"
    },
    {
      "anonymous": false,
      "inputs": [
        {
          "indexed": true,
          "internalType": "address",
          "name": "verifier",
          "type": "address"
        }
      ],
      "name": "VerifierAdded",
      "type": "event"
    },
    {
      "anonymous": false,
      "inputs": [
        {
          "indexed": true,
          "internalType": "address",
          "name": "verifier",
          "type": "address"
        }
      ],
      "name": "VerifierRemoved",
      "type": "event"
    },
    {
      "inputs": [
        {
          "internalType": "bytes32",
          "name": "",
          "type": "bytes32"
        },
        {
          "internalType": "uint256",
          "name": "",
          "type": "uint256"
        }
      ],
      "name": "crossChainVerifications",
      "outputs": [
        {
          "internalType": "bool",
          "name": "",
          "type": "bool"
        }
      ],
      "stateMutability": "view",
      "type": "function",
      "constant": true
    },
    {
      "inputs": [
        {
          "internalType": "bytes32",
          "name": "",
          "type": "bytes32"
        }
      ],
      "name": "identities",
      "outputs": [
        {
          "internalType": "bytes32",
          "name": "identityHash",
          "type": "bytes32"
        },
        {
          "internalType": "bool",
          "name": "isRegistered",
          "type": "bool"
        },
        {
          "internalType": "bool",
          "name": "isVerified",
          "type": "bool"
        },
        {
          "internalType": "bool",
          "name": "isRevoked",
          "type": "bool"
        },
        {
          "internalType": "uint256",
          "name": "revocationTimestamp",
          "type": "uint256"
        },
        {
          "internalType": "string",
          "name": "revocationReason",
          "type": "string"
        },
        {
          "internalType": "address",
          "name": "registeredBy",
          "type": "address"
        },
        {
          "internalType": "uint256",
          "name": "chainId",
          "type": "uint256"
        }
      ],
      "stateMutability": "view",
      "type": "function",
      "constant": true
    },
    {
      "inputs": [],
      "name": "owner",
      "outputs": [
        {
          "internalType": "address",
          "name": "",
          "type": "address"
        }
      ],
      "stateMutability": "view",
      "type": "function",
      "constant": true
    },
    {
      "inputs": [],
      "name": "renounceOwnership",
      "outputs": [],
      "stateMutability": "nonpayable",
      "type": "function"
    },
    {
      "inputs": [
        {
          "internalType": "uint256",
          "name": "",
          "type": "uint256"
        }
      ],
      "name": "supportedChains",
      "outputs": [
        {
          "internalType": "bool",
          "name": "",
          "type": "bool"
        }
      ],
      "stateMutability": "view",
      "type": "function",
      "constant": true
    },
    {
      "inputs": [
        {
          "internalType": "address",
          "name": "newOwner",
          "type": "address"
        }
      ],
      "name": "transferOwnership",
      "outputs": [],
      "stateMutability": "nonpayable",
      "type": "function"
    },
    {
      "inputs": [
        {
          "internalType": "address",
          "name": "",
          "type": "address"
        }
      ],
      "name": "verifiers",
      "outputs": [
        {
          "internalType": "bool",
          "name": "",
          "type": "bool"
        }
      ],
      "stateMutability": "view",
      "type": "function",
      "constant": true
    },
    {
      "inputs": [
        {
          "internalType": "bytes32",
          "name": "_identityHash",
          "type": "bytes32"
        }
      ],
      "name": "registerIdentity",
      "outputs": [],
      "stateMutability": "nonpayable",
      "type": "function"
    },
    {
      "inputs": [
        {
          "internalType": "bytes32",
          "name": "_identityHash",
          "type": "bytes32"
        }
      ],
      "name": "verifyIdentity",
      "outputs": [],
      "stateMutability": "nonpayable",
      "type": "function"
    },
    {
      "inputs": [
        {
          "internalType": "bytes32",
          "name": "_identityHash",
          "type": "bytes32"
        },
        {
          "internalType": "string",
          "name": "_reason",
          "type": "string"
        }
      ],
      "name": "revokeIdentity",
      "outputs": [],
      "stateMutability": "nonpayable",
      "type": "function"
    },
    {
      "inputs": [
        {
          "internalType": "bytes32",
          "name": "_identityHash",
          "type": "bytes32"
        },
        {
          "internalType": "uint256",
          "name": "_fromChainId",
          "type": "uint256"
        },
        {
          "internalType": "uint256",
          "name": "_toChainId",
          "type": "uint256"
        }
      ],
      "name": "verifyCrossChain",
      "outputs": [],
      "stateMutability": "nonpayable",
      "type": "function"
    },
    {
      "inputs": [
        {
          "internalType": "bytes32",
          "name": "_identityHash",
          "type": "bytes32"
        }
      ],
      "name": "checkIdentity",
      "outputs": [
        {
          "internalType": "bool",
          "name": "isRegistered",
          "type": "bool"
        },
        {
          "internalType": "bool",
          "name": "isVerified",
          "type": "bool"
        },
        {
          "internalType": "bool",
          "name": "isRevoked",
          "type": "bool"
        },
        {
          "internalType": "uint256",
          "name": "revocationTimestamp",
          "type": "uint256"
        },
        {
          "internalType": "string",
          "name": "revocationReason",
          "type": "string"
        }
      ],
      "stateMutability": "view",
      "type": "function",
      "constant": true
    },
    {
      "inputs": [
        {
          "internalType": "address",
          "name": "_verifier",
          "type": "address"
        }
      ],
      "name": "addVerifier",
      "outputs": [],
      "stateMutability": "nonpayable",
      "type": "function"
    },
    {
      "inputs": [
        {
          "internalType": "address",
          "name": "_verifier",
          "type": "address"
        }
      ],
      "name": "removeVerifier",
      "outputs": [],
      "stateMutability": "nonpayable",
      "type": "function"
    },
    {
      "inputs": [
        {
          "internalType": "uint256",
          "name": "_chainId",
          "type": "uint256"
        },
        {
          "internalType": "bool",
          "name": "_supported",
          "type": "bool"
        }
      ],
      "name": "setChainSupport",
      "outputs": [],
      "stateMutability": "nonpayable",
      "type": "function"
    }
  ],
  "bytecode": "0x608060405234801561001057600080fd5b5061001a3361008c565b3360009081526002602090815260408083208054600160ff1991821681179092554680865260038552948390208054909116821790558151938452918301919091527fe78910fc1a08062969a9edf6b274d453a04a1734507fabbd5bb445d5cb8eaeae910160405180910390a16100dc565b600080546001600160a01b038381166001600160a01b0319831681178455604051919092169283917f8be0079c531659141344cd1fd0a4f28419497f9722a3daafe3b4186f6b6457e09190a35050565b61136f806100eb6000396000f3fe608060405234801561001057600080fd5b50600436106100f55760003560e01c80638da5cb5b11610097578063e751b70311610066578063e751b70314610243578063ec93dee314610256578063ef9328c414610269578063f2fde38b1461027c57600080fd5b80638da5cb5b146101d45780639000b3d6146101ef578063a6faafa514610202578063ca2dfd0a1461023057600080fd5b8063624812d3116100d3578063624812d31461016f5780636c82448714610182578063715018a6146101a557806381638e9b146101ad57600080fd5b8063103d9fae146100fa578063218dd3dd1461010f578063548d496f1461013c575b600080fd5b61010d610108366004610f1f565b61028f565b005b61012261011d366004610f1f565b610468565b604051610133959493929190610f7e565b60405180910390f35b61015f61014a366004610f1f565b60036020526000908152604090205460ff1681565b6040519015158152602001610133565b61010d61017d366004610f1f565b6105b5565b61015f610190366004610fba565b60026020526000908152604090205460ff1681565b61010d610781565b6101c06101bb366004610f1f565b610795565b604051610133989796959493929190610fea565b6000546040516001600160a01b039091168152602001610133565b61010d6101fd366004610fba565b610874565b61015f610210366004611043565b600460209081526000928352604080842090915290825290205460ff1681565b61010d61023e366004610fba565b610910565b61010d61025136600461107b565b6109ba565b61010d610264366004611136565b610b45565b61010d61027736600461116b565b610ba6565b61010d61028a366004610fba565b610dfc565b60008181526001602081905260409091200154819060ff16156102f95760405162461bcd60e51b815260206004820152601b60248201527f4964656e7469747920616c72656164792072656769737465726564000000000060448201526064015b60405180910390fd5b816103465760405162461bcd60e51b815260206004820152601d60248201527f4964656e7469747920686173682063616e6e6f7420626520656d70747900000060448201526064016102f0565b604080516101008082018352848252600160208084018281526000858701818152606087018281526080880183815289518087018b5284815260a08a019081523360c08b01524660e08b01528c8552958790529890922087518155925194830180549151925161ffff1990921695151561ff001916959095179115159095021762ff0000191662010000941515949094029390931790915592516002820155915190919060038201906103f99082611220565b5060c08201516004820180546001600160a01b0319166001600160a01b0390921691909117905560e090910151600590910155604051468152339083907f4e7145d6db494779fea7c0fb6423db6bf3a60f90ce0e8128b7d70bf4701de460906020015b60405180910390a35050565b600081815260016020818152604080842081516101008082018452825482529482015460ff80821615159583019590955294850484161515928101929092526201000090930490911615156060828101919091526002830154608083015260038301805485948594859493859391929160a0840191906104e790611197565b80601f016020809104026020016040519081016040528092919081815260200182805461051390611197565b80156105605780601f1061053557610100808354040283529160200191610560565b820191906000526020600020905b81548152906001019060200180831161054357829003601f168201915b505050918352505060048201546001600160a01b031660208083019190915260059092015460409182015290820151908201516060830151608084015160a090940151929b919a509850919650945092505050565b3360009081526002602052604090205460ff16806105ec5750336105e16000546001600160a01b031690565b6001600160a01b0316145b6106085760405162461bcd60e51b81526004016102f0906112e0565b60008181526001602081905260409091200154819062010000900460ff16156106695760405162461bcd60e51b81526020600482015260136024820152721259195b9d1a5d1e481a5cc81c995d9bdad959606a1b60448201526064016102f0565b6000828152600160208190526040909120015460ff166106c55760405162461bcd60e51b81526020600482015260176024820152761259195b9d1a5d1e481b9bdd081c9959da5cdd195c9959604a1b60448201526064016102f0565b60008281526001602081905260409091200154610100900460ff161561072d5760405162461bcd60e51b815260206004820152601960248201527f4964656e7469747920616c72656164792076657269666965640000000000000060448201526064016102f0565b60008281526001602081905260409182902001805461ff00191661010017905551339083907f1f6d902b798ec882a08bd42522df74ba8f3c0f55c0b5f85779bd57b6723753659061045c9046815260200190565b610789610e75565b6107936000610ecf565b565b6001602081905260009182526040909120805491810154600282015460038301805460ff808516956101008604821695620100009004909116939290916107db90611197565b80601f016020809104026020016040519081016040528092919081815260200182805461080790611197565b80156108545780601f1061082957610100808354040283529160200191610854565b820191906000526020600020905b81548152906001019060200180831161083757829003601f168201915b50505050600483015460059093015491926001600160a01b031691905088565b61087c610e75565b6001600160a01b0381166108c45760405162461bcd60e51b815260206004820152600f60248201526e496e76616c6964206164647265737360881b60448201526064016102f0565b6001600160a01b038116600081815260026020526040808220805460ff19166001179055517f6d05492139c5ea989514a5d2150c028041e5c087e2a39967f67dc7d2655adb819190a250565b610918610e75565b6001600160a01b03811660009081526002602052604090205460ff166109715760405162461bcd60e51b815260206004820152600e60248201526d2737ba1030903b32b934b334b2b960911b60448201526064016102f0565b6001600160a01b038116600081815260026020526040808220805460ff19169055517f44a3cd4eb5cc5748f6169df057b1cb2ae4c383e87cd94663c430e095d4cba4249190a250565b3360009081526002602052604090205460ff16806109f15750336109e66000546001600160a01b031690565b6001600160a01b0316145b610a0d5760405162461bcd60e51b81526004016102f0906112e0565b6000828152600160208190526040909120015460ff16610a695760405162461bcd60e51b81526020600482015260176024820152761259195b9d1a5d1e481b9bdd081c9959da5cdd195c9959604a1b60448201526064016102f0565b6000828152600160208190526040909120015462010000900460ff1615610ad25760405162461bcd60e51b815260206004820152601860248201527f4964656e7469747920616c7265616479207265766f6b6564000000000000000060448201526064016102f0565b6000828152600160208190526040909120908101805462ff0000191662010000179055426002820155600301610b088282611220565b50336001600160a01b0316827f83d197654b152ac88c002d139eb7ca239d887da30f9979c7f2959952567927e7834260405161045c929190611317565b610b4d610e75565b600082815260036020908152604091829020805460ff19168415159081179091558251858152918201527fe78910fc1a08062969a9edf6b274d453a04a1734507fabbd5bb445d5cb8eaeae910160405180910390a15050565b3360009081526002602052604090205460ff1680610bdd575033610bd26000546001600160a01b031690565b6001600160a01b0316145b610bf95760405162461bcd60e51b81526004016102f0906112e0565b600082815260036020526040902054829060ff16610c4f5760405162461bcd60e51b815260206004820152601360248201527210da185a5b881b9bdd081cdd5c1c1bdc9d1959606a1b60448201526064016102f0565b600082815260036020526040902054829060ff16610ca55760405162461bcd60e51b815260206004820152601360248201527210da185a5b881b9bdd081cdd5c1c1bdc9d1959606a1b60448201526064016102f0565b600085815260046020908152604080832087845290915290205460ff16610d1c5760405162461bcd60e51b815260206004820152602560248201527f4964656e74697479206e6f74207665726966696564206f6e20736f757263652060448201526431b430b4b760d91b60648201526084016102f0565b600085815260046020908152604080832086845290915290205460ff1615610d985760405162461bcd60e51b815260206004820152602960248201527f4964656e7469747920616c7265616479207665726966696564206f6e2074617260448201526833b2ba1031b430b4b760b91b60648201526084016102f0565b6000858152600460209081526040808320868452825291829020805460ff19166001179055815186815290810185905286917fc0fdb79dc5924d1d863b6c72eba212790f7e1a7d50caa05cd725fe334c41de8d910160405180910390a25050505050565b610e04610e75565b6001600160a01b038116610e695760405162461bcd60e51b815260206004820152602660248201527f4f776e61626c653a206e6577206f776e657220697320746865207a65726f206160448201526564647265737360d01b60648201526084016102f0565b610e7281610ecf565b50565b6000546001600160a01b031633146107935760405162461bcd60e51b815260206004820181905260248201527f4f776e61626c653a2063616c6c6572206973206e6f7420746865206f776e657260448201526064016102f0565b600080546001600160a01b038381166001600160a01b0319831681178455604051919092169283917f8be0079c531659141344cd1fd0a4f28419497f9722a3daafe3b4186f6b6457e09190a35050565b600060208284031215610f3157600080fd5b5035919050565b6000815180845260005b81811015610f5e57602081850181015186830182015201610f42565b506000602082860101526020601f19601f83011685010191505092915050565b85151581528415156020820152831515604082015282606082015260a060808201526000610faf60a0830184610f38565b979650505050505050565b600060208284031215610fcc57600080fd5b81356001600160a01b0381168114610fe357600080fd5b9392505050565b60006101008a83528915156020840152881515604084015287151560608401528660808401528060a084015261102281840187610f38565b6001600160a01b039590951660c0840152505060e001529695505050505050565b6000806040838503121561105657600080fd5b50508035926020909101359150565b634e487b7160e01b600052604160045260246000fd5b6000806040838503121561108e57600080fd5b82359150602083013567ffffffffffffffff808211156110ad57600080fd5b818501915085601f8301126110c157600080fd5b8135818111156110d3576110d3611065565b604051601f8201601f19908116603f011681019083821181831017156110fb576110fb611065565b8160405282815288602084870101111561111457600080fd5b8260208601602083013760006020848301015280955050505050509250929050565b6000806040838503121561114957600080fd5b823591506020830135801515811461116057600080fd5b809150509250929050565b60008060006060848603121561118057600080fd5b505081359360208301359350604090920135919050565b600181811c908216806111ab57607f821691505b6020821081036111cb57634e487b7160e01b600052602260045260246000fd5b50919050565b601f82111561121b57600081815260208120601f850160051c810160208610156111f85750805b601f850160051c820191505b8181101561121757828155600101611204565b5050505b505050565b815167ffffffffffffffff81111561123a5761123a611065565b61124e816112488454611197565b846111d1565b602080601f831160018114611283576000841561126b5750858301515b600019600386901b1c1916600185901b178555611217565b600085815260208120601f198616915b828110156112b257888601518255948401946001909101908401611293565b50858210156112d05787850151600019600388901b60f8161c191681555b5050505050600190811b01905550565b60208082526018908201527f43616c6c6572206973206e6f7420612076657269666965720000000000000000604082015260600190565b60408152600061132a6040830185610f38565b9050826020830152939250505056fea2646970667358221220e40b49465ff1c5f18909e74728e83b93e0efe86f4de0fe6045e21773b907b82364736f6c63430008130033",
  "immutableReferences": {},
  "source": "// SPDX-License-Identifier: MIT\r\npragma solidity ^0.8.19;\r\n\r\nimport \"@openzeppelin/contracts/access/Ownable.sol\";\r\n\r\ncontract IdentityVerification is Ownable {\r\n    // Structs\r\n    struct Identity {\r\n        bytes32 identityHash;\r\n        bool isRegistered;\r\n        bool isVerified;\r\n        bool isRevoked;\r\n        uint256 revocationTimestamp;\r\n        string revocationReason;\r\n        address registeredBy;\r\n        uint256 chainId;\r\n    }\r\n\r\n    // Mappings\r\n    mapping(bytes32 => Identity) public identities;\r\n    mapping(address => bool) public verifiers;\r\n    mapping(uint256 => bool) public supportedChains;\r\n    mapping(bytes32 => mapping(uint256 => bool)) public crossChainVerifications;\r\n\r\n    // Events\r\n    event IdentityRegistered(\r\n        bytes32 indexed identityHash,\r\n        address indexed registeredBy,\r\n        uint256 chainId\r\n    );\r\n    event IdentityVerified(\r\n        bytes32 indexed identityHash,\r\n        address indexed verifiedBy,\r\n        uint256 chainId\r\n    );\r\n    event IdentityRevoked(\r\n        bytes32 indexed identityHash,\r\n        address indexed revokedBy,\r\n        string reason,\r\n        uint256 timestamp\r\n    );\r\n    event CrossChainVerification(\r\n        bytes32 indexed identityHash,\r\n        uint256 fromChainId,\r\n        uint256 toChainId\r\n    );\r\n    event VerifierAdded(address indexed verifier);\r\n    event VerifierRemoved(address indexed verifier);\r\n    event ChainSupported(uint256 chainId, bool supported);\r\n\r\n    // Modifiers\r\n    modifier onlyVerifier() {\r\n        require(\r\n            verifiers[msg.sender] || owner() == msg.sender,\r\n            \"Caller is not a verifier\"\r\n        );\r\n        _;\r\n    }\r\n\r\n    modifier notRegistered(bytes32 _identityHash) {\r\n        require(\r\n            !identities[_identityHash].isRegistered,\r\n            \"Identity already registered\"\r\n        );\r\n        _;\r\n    }\r\n\r\n    modifier notRevoked(bytes32 _identityHash) {\r\n        require(\r\n            !identities[_identityHash].isRevoked,\r\n            \"Identity is revoked\"\r\n        );\r\n        _;\r\n    }\r\n\r\n    modifier chainSupported(uint256 _chainId) {\r\n        require(\r\n            supportedChains[_chainId],\r\n            \"Chain not supported\"\r\n        );\r\n        _;\r\n    }\r\n\r\n    constructor() Ownable() {\r\n        // Set contract deployer as the initial owner and verifier\r\n        verifiers[msg.sender] = true;\r\n        // Add current chain as supported\r\n        supportedChains[block.chainid] = true;\r\n        emit ChainSupported(block.chainid, true);\r\n    }\r\n\r\n    /**\r\n     * @dev Registers a new identity hash\r\n     * @param _identityHash Hash of the identity data\r\n     */\r\n    function registerIdentity(\r\n        bytes32 _identityHash\r\n    ) external notRegistered(_identityHash) {\r\n        require(_identityHash != bytes32(0), \"Identity hash cannot be empty\");\r\n\r\n        identities[_identityHash] = Identity({\r\n            identityHash: _identityHash,\r\n            isRegistered: true,\r\n            isVerified: false,\r\n            isRevoked: false,\r\n            revocationTimestamp: 0,\r\n            revocationReason: \"\",\r\n            registeredBy: msg.sender,\r\n            chainId: block.chainid\r\n        });\r\n\r\n        emit IdentityRegistered(_identityHash, msg.sender, block.chainid);\r\n    }\r\n\r\n    /**\r\n     * @dev Verifies an identity hash\r\n     * @param _identityHash Hash of the identity data to verify\r\n     */\r\n    function verifyIdentity(bytes32 _identityHash) external onlyVerifier notRevoked(_identityHash) {\r\n        require(\r\n            identities[_identityHash].isRegistered,\r\n            \"Identity not registered\"\r\n        );\r\n        require(\r\n            !identities[_identityHash].isVerified,\r\n            \"Identity already verified\"\r\n        );\r\n\r\n        identities[_identityHash].isVerified = true;\r\n\r\n        emit IdentityVerified(_identityHash, msg.sender, block.chainid);\r\n    }\r\n\r\n    /**\r\n     * @dev Revokes an identity\r\n     * @param _identityHash Hash of the identity to revoke\r\n     * @param _reason Reason for revocation\r\n     */\r\n    function revokeIdentity(\r\n        bytes32 _identityHash,\r\n        string memory _reason\r\n    ) external onlyVerifier {\r\n        require(\r\n            identities[_identityHash].isRegistered,\r\n            \"Identity not registered\"\r\n        );\r\n        require(\r\n            !identities[_identityHash].isRevoked,\r\n            \"Identity already revoked\"\r\n        );\r\n\r\n        identities[_identityHash].isRevoked = true;\r\n        identities[_identityHash].revocationTimestamp = block.timestamp;\r\n        identities[_identityHash].revocationReason = _reason;\r\n\r\n        emit IdentityRevoked(\r\n            _identityHash,\r\n            msg.sender,\r\n            _reason,\r\n            block.timestamp\r\n        );\r\n    }\r\n\r\n    /**\r\n     * @dev Verifies identity across chains\r\n     * @param _identityHash Hash of the identity to verify\r\n     * @param _fromChainId Source chain ID\r\n     * @param _toChainId Target chain ID\r\n     */\r\n    function verifyCrossChain(\r\n        bytes32 _identityHash,\r\n        uint256 _fromChainId,\r\n        uint256 _toChainId\r\n    ) external onlyVerifier chainSupported(_fromChainId) chainSupported(_toChainId) {\r\n        require(\r\n            crossChainVerifications[_identityHash][_fromChainId],\r\n            \"Identity not verified on source chain\"\r\n        );\r\n        require(\r\n            !crossChainVerifications[_identityHash][_toChainId],\r\n            \"Identity already verified on target chain\"\r\n        );\r\n\r\n        crossChainVerifications[_identityHash][_toChainId] = true;\r\n\r\n        emit CrossChainVerification(_identityHash, _fromChainId, _toChainId);\r\n    }\r\n\r\n    /**\r\n     * @dev Checks if an identity is registered and verified\r\n     * @param _identityHash Hash of the identity data to check\r\n     * @return isRegistered Whether the identity is registered\r\n     * @return isVerified Whether the identity is verified\r\n     * @return isRevoked Whether the identity is revoked\r\n     * @return revocationTimestamp When the identity was revoked\r\n     * @return revocationReason Why the identity was revoked\r\n     */\r\n    function checkIdentity(\r\n        bytes32 _identityHash\r\n    ) external view returns (\r\n        bool isRegistered,\r\n        bool isVerified,\r\n        bool isRevoked,\r\n        uint256 revocationTimestamp,\r\n        string memory revocationReason\r\n    ) {\r\n        Identity memory identity = identities[_identityHash];\r\n        return (\r\n            identity.isRegistered,\r\n            identity.isVerified,\r\n            identity.isRevoked,\r\n            identity.revocationTimestamp,\r\n            identity.revocationReason\r\n        );\r\n    }\r\n\r\n    /**\r\n     * @dev Adds a new verifier\r\n     * @param _verifier Address of the new verifier\r\n     */\r\n    function addVerifier(address _verifier) external onlyOwner {\r\n        require(_verifier != address(0), \"Invalid address\");\r\n        verifiers[_verifier] = true;\r\n        emit VerifierAdded(_verifier);\r\n    }\r\n\r\n    /**\r\n     * @dev Removes a verifier\r\n     * @param _verifier Address of the verifier to remove\r\n     */\r\n    function removeVerifier(address _verifier) external onlyOwner {\r\n        require(verifiers[_verifier], \"Not a verifier\");\r\n        verifiers[_verifier] = false;\r\n        emit VerifierRemoved(_verifier);\r\n    }\r\n\r\n    /**\r\n     * @dev Adds or removes support for a chain\r\n     * @param _chainId Chain ID to update\r\n     * @param _supported Whether the chain should be supported\r\n     */\r\n    function setChainSupport(uint256 _chainId, bool _supported) external onlyOwner {\r\n        supportedChains[_chainId] = _supported;\r\n        emit ChainSupported(_chainId, _supported);\r\n    }\r\n}",
  "sourcePath": "C:\\Users\\kunal\\OneDrive\\Desktop\\Basic Working Code1111\\Basic Working Code\\Project 3\\contracts\\IdentityVerification.sol",
  "compiler": {
    "name": "solc",
    "version": "0.8.19+commit.7dd6d404.Emscripten.clang"
  },
  "schemaVersion": "3.4.16",
  "updatedAt": "2025-04-30T17:47:54.939Z",
  "networkType": "ethereum",
  "devdoc": {
    "kind": "dev",
    "methods": {
      "addVerifier(address)": {
        "details": "Adds a new verifier",
        "params": {
          "_verifier": "Address of the new verifier"
        }
      },
      "checkIdentity(bytes32)": {
        "details": "Checks if an identity is registered and verified",
        "params": {
          "_identityHash": "Hash of the identity data to check"
        },
        "returns": {
          "isRegistered": "Whether the identity is registered",
          "isRevoked": "Whether the identity is revoked",
          "isVerified": "Whether the identity is verified",
          "revocationReason": "Why the identity was revoked",
          "revocationTimestamp": "When the identity was revoked"
        }
      },
      "owner()": {
        "details": "Returns the address of the current owner."
      },
      "registerIdentity(bytes32)": {
        "details": "Registers a new identity hash",
        "params": {
          "_identityHash": "Hash of the identity data"
        }
      },
      "removeVerifier(address)": {
        "details": "Removes a verifier",
        "params": {
          "_verifier": "Address of the verifier to remove"
        }
      },
      "renounceOwnership()": {
        "details": "Leaves the contract without owner. It will not be possible to call `onlyOwner` functions anymore. Can only be called by the current owner. NOTE: Renouncing ownership will leave the contract without an owner, thereby removing any functionality that is only available to the owner."
      },
      "revokeIdentity(bytes32,string)": {
        "details": "Revokes an identity",
        "params": {
          "_identityHash": "Hash of the identity to revoke",
          "_reason": "Reason for revocation"
        }
      },
      "setChainSupport(uint256,bool)": {
        "details": "Adds or removes support for a chain",
        "params": {
          "_chainId": "Chain ID to update",
          "_supported": "Whether the chain should be supported"
        }
      },
      "transferOwnership(address)": {
        "details": "Transfers ownership of the contract to a new account (`newOwner`). Can only be called by the current owner."
      },
      "verifyCrossChain(bytes32,uint256,uint256)": {
        "details": "Verifies identity across chains",
        "params": {
          "_fromChainId": "Source chain ID",
          "_identityHash": "Hash of the identity to verify",
          "_toChainId": "Target chain ID"
        }
      },
      "verifyIdentity(bytes32)": {
        "details": "Verifies an identity hash",
        "params": {
          "_identityHash": "Hash of the identity data to verify"
        }
      }
    },
    "version": 1
  },
  "userdoc": {
    "kind": "user",
    "methods": {},
    "version": 1
  }
}